:100000000C94EA020C941B030C941B030C941B032A
:100010000C941B030C941B030C941B030C941B03E8
:100020000C941B030C941B030C941B030C941B03D8
:100030000C941B030C941B030C941B030C941B03C8
:100040000C941B030C941B030C941B030C941B03B8
:100050000C941B030C941B030C941B030C94D42FC3
:100060000C941B030C9448300C941E300C941B030E
:100070000C941B030C941B030C941B030C941B0388
:100080000C941B030C941B030C941B030C941B0378
:100090000C941B030C941B030C941B030C941B0368
:1000A0000C941B030C941B030C941B030C941B0358
:1000B0000C941B030C941B030C941B030C941B0348
:1000C0000C941B030C941B030C941B030C941B0338
:1000D0000C941B030C941B030C941B030C941B0328
:1000E0000C941B030C944C160C940D040C943604C5
:1000F0000C94D7100C9447120C942F120C9458188F
:100100000C940B240C9405040C94A7160C94331235
:100110000C944E120C94711A0C9498230C94790937
:100120000C948F1A0C9437120C94C91A0C94100466
:100130000C9459090C94851C0C943A070C94861A5B
:100140000C9440040C947E300C9449180C94851D3A
:100150000C9441140C940D070C9409040C949624EF
:100160000C94003A0C94221F0C94FF2C0C94FD2C40
:100170000C9420040C941F1E0C94DC200C94490752
:100180000C9401040C9444140C943F140C943316F6
:100190000C94661C0C9493260C944A1E0C943C04FC
:1001A0000C946B070C9461190C944C140C9432044D
:1001B0000C94F8110C94A3070C94C91C0C94C40E55
:1001C0000C94A31D0C941A040C943B040C940B087F
:1001D0000C94ED100C94D1030C945D070C94351421
:1001E0000C9431140C94CD030C946E160C942404CE
:1001F0000C9416040C94F8100C9428040C94FB0333
:100200000C942E040C94AF1C0C948C1B2C2070614D
:10021000796C6F61643D002C206C656E6774683D7D
:10022000005075626C6973682E20746F7069633D4D
:1002300000636F6E6E6563746564006661696C650A
:10024000642C2072633D00436F6E6E656374696E4B
:100250006720746F204D5154542062726F6B657229
:100260002E2E2E004E657720626F696C65722073AA
:10027000657474696E6773002C207061796C6F61AE
:10028000643D00272C206C656E6774683D006D65C9
:10029000737361676520617272697665643A207470
:1002A0006F7069633D2700005EBCE2613FDD83C281
:1002B0009C7E20A3FD1F41009D23BE46DB65F88C7C
:1002C00011AF32CA57E9744E657720445331384232
:1002D00032302073657474696E6773206170706C5E
:1002E0006965640044533138423230207061726174
:1002F00073697465206D6F64653A2000445331382A
:100300004232302073656E736F727320666F756E44
:10031000643A2000495020416464726573733A2046
:10032000005374617274696E672065746865726EDB
:1003300065742E2E00537461727400496E6974697D
:10034000616C697A696E672E2E207665722E203375
:100350002E312E320000002100240027002A002D1B
:10036000003000330001010000040107010A010010
:10037000000A0B02090C0D0E08070304010000001F
:10038000000000000000000000000000000000006D
:10039000000000000000000000000012111000002A
:1003A000000000000000000000000000000000004D
:1003B000000000000000002200250028002B002E75
:1003C000003100340002010000050108010B013971
:1003D000352064656772656520696E2074616E6B97
:1003E00020646561637469766174656400393520E1
:1003F00064656772656520696E2074616E6B20614B
:10040000637469766174656400534D582064656156
:10041000637469766174656400534D582061637438
:100420006976617465640043465220646561637453
:10043000697661746564004346522061637469762D
:100440006174656400454D4F46206465616374695D
:10045000766174656400454D4F462061637469762A
:100460006174656400556E6465722F4F7665722005
:10047000766F6C7461676500525444494E2D203C80
:1004800020302E383520782042696173202D204697
:100490004F5243452D206F70656E00524546494EC0
:1004A0002D203C20302E3835207820426961732081
:1004B0002D20464F5243452D206F70656E005245EA
:1004C00046494E2D203E20302E3835207820426976
:1004D000617300525444204C6F77205468726573E6
:1004E000686F6C64005254442048696768205468FF
:1004F000726573686F6C64004661756C7420307847
:10050000004572724A616E4665624D617241707259
:100510004D61794A756E4A756C4175675365704FC8
:1005200063744E6F7644656300000020002300264C
:100530000029002C002F00320000010000030106FA
:10054000010901050505050705080808080202025A
:10055000020A0A080804040404010101010101015E
:10056000010303030303030303040707070C0C0C35
:100570000C0C0C0C0C02020202060606060606060D
:10058000060B0B0B0B0B0B0B0B01021020200808AA
:1005900010204010204080020102010804020101E5
:1005A00002040810204080804020100804020180CE
:1005B0000402018040201008040201080402010125
:1005C000020408102040800102040810204080002E
:1005D0007E30003A11241FBECFEFD1E2DEBFCDBF87
:1005E00000E00CBF14E0A0E0B2E0ECE8F5E800E0C9
:1005F0000BBF02C007900D92A637B107D9F729E0CB
:10060000A6E7B4E001C01D92AF3BB207E1F712E0EC
:10061000C9EED2E000E006C021970109802FFE015B
:100620000E94073BC83ED10780E00807A9F70E9457
:1006300088320C94B4420C940000982F92959F70CD
:10064000FB013196DB01A45ABA4F9A3070F0995CE5
:100650009C93982F9F706E5F7F4FE45AFA4F9A30A9
:1006600030F0995C9083CB010895905DF1CF905D5F
:10067000F9CFCF93DF93EC01FA013296E60FF71F23
:10068000DC019D012C1B3D0BCF01861B970B4D916F
:10069000442311F04193F5CFAC01421B530B640F7F
:1006A000751FFB013297308361507109FB01208374
:1006B000DF91CF9108958091390990913A0900977F
:1006C00011F480E02FC0DC01ED91FC910688F789E0
:1006D000E02D199520915C0930915D0981111FC0B1
:1006E000232B79F78DEF9FEF90935D0980935C0941
:1006F0008091390990913A09DC01ED91FC910680D5
:10070000F781E02D19958091390990913A09DC0122
:10071000ED91FC910488F589E02D1995D2CF81E007
:10072000232B79F608958E31F8F491E1899FF00139
:100730001124DF01A75FB84F8C91982F9F70A1F013
:10074000807E8C93E150F94F1182108212821382C5
:1007500014821582168217821086118614861386DB
:1007600016861586108A17860895CF93DF93EC01BD
:10077000C851DC4F8D2F0E941D03BC018C2FDF91CF
:10078000CF910C941D03CF93C82F892F0E941D0376
:10079000BC018C2FCF910C941D03FC01818D928D97
:1007A000089508958230910538F0880F991F880FB9
:1007B000991F05970197F1F708958150823108F04C
:1007C0005AC0E82FF0E08827E751FC4F8F4F0C9478
:1007D000073B09040D04FB03010405043B0410045A
:1007E00016041A042004240428042E0432043B04B2
:1007F00036043C044004809180008F778093800011
:100800000895809180008F7DF9CF80918000877F4F
:10081000F5CF84B58F7784BD089584B58F7DFBCFE8
:100820008091B0008F778093B00008958091B000E0
:100830008F7DF9CF809190008F77809390000895FD
:10084000809190008F7DF9CF80919000877FF5CFC8
:100850008091A0008F778093A00008958091A000E0
:100860008F7DF9CF8091A000877FF5CF8091200107
:100870008F77809320010895809120018F7DF9CF9B
:1008800080912001877FF5CF1F93CF93DF93282F8F
:1008900030E0F901E159FC4F8491F901E757FA4F33
:1008A000D491F901ED5BFA4FC491CC23A9F0162F36
:1008B00081110E94DD03EC2FF0E0EE0FFF1FEB54DF
:1008C000FC4FA591B4918FB7F894EC91111108C029
:1008D000D095DE23DC938FBFDF91CF911F910895D8
:1008E000DE2BF8CFCF93DF9390E0FC01E757FA4F70
:1008F00024918D5B9A4FFC0184918823D1F090E084
:10090000880F991FFC01EB5AFC4FA591B491FC0193
:10091000EB54FC4FC591D49161110EC09FB7F89470
:100920008C91E22FE0958E238C932881E223E8833B
:100930009FBFDF91CF9108958FB7F894EC91E22B90
:10094000EC938FBFF6CF3FB7F8948091C30490919A
:10095000C404A091C504B091C60426B5A89B05C0E7
:100960002F3F19F00196A11DB11D3FBFBA2FA92F2E
:10097000982F8827BC01CD01620F711D811D911D2B
:1009800042E0660F771F881F991F4A95D1F7089597
:100990008F929F92AF92BF92CF92DF92EF92FF928F
:1009A0006B017C010E94A3044B015C01C114D104C2
:1009B000E104F104B9F00E94A304681979098A09D5
:1009C0009B09683E73408105910580F321E0C21ABE
:1009D000D108E108F10888EE880E83E0981EA11C7A
:1009E000B11CE4CFFF90EF90DF90CF90BF90AF901D
:1009F0009F908F9008952FB7F8946091BF047091E5
:100A0000C0048091C1049091C2042FBF0895EF9259
:100A1000FF920F931F93CF93DF9300D01F92CDB718
:100A2000DEB7FA0120E08E010F5F1F4F9E2F9F77E8
:100A3000EE0FEF2FEE1FFF0BF195309709F0906846
:100A4000D801A20FB11D9C932F5F309779F730E04A
:100A5000FB01E21BF30B8483FB01E21BF30B3596D6
:100A6000D801CD01801B910B821793071CF48D9147
:100A70008193F7CF2F5F3F4F8091390990913A09C9
:100A80008901040F151F621B730B6B5F7F4FDC0125
:100A9000ED91FC910280F381E02DA80119957C0174
:100AA0000E94FB04609345097093460980934709AF
:100AB0009093480981E00E151F0509F080E00F9022
:100AC0000F900F900F90DF91CF911F910F91FF909A
:100AD000EF9008958F929F92AF92BF92CF92DF9244
:100AE000EF92FF92CF93DF93EC010E94FB044B0146
:100AF0005C018091390990913A09DC01ED91FC91FA
:100B00000084F185E02D1995892BB9F40E94FB042E
:100B10006B017C01C818D908EA08FB08209141093B
:100B200030914209A8EEB3E00E94C03AC616D7063B
:100B3000E806F906F0F280E00DC080913909909145
:100B40003A09DC01ED91FC910284F385E02D1995C1
:100B5000888381E0DF91CF91FF90EF90DF90CF907D
:100B6000BF90AF909F908F9008952F923F924F9299
:100B70005F926F927F928F929F92AF92BF92CF922D
:100B8000DF92EF92FF920F931F93CF93DF9300D0EA
:100B900000D000D01F92CDB7DEB71C0180913B0979
:100BA00090913C090E946A0581111CC060E070E0D0
:100BB000CB012A960FB6F894DEBF0FBECDBFDF91F2
:100BC000CF911F910F91FF90EF90DF90CF90BF904A
:100BD000AF909F908F907F906F905F904F903F90DD
:100BE0002F900895E0913B09F0913C09D080198243
:100BF000EE24E394F12C812C912C5401412C512CA6
:100C000032014394CE0101960E946A05882371F255
:100C100087010F5F1F4F8981E0913B09F0913C09EB
:100C2000EE0DFF1D8083E981AE2FAF77B0E0A30109
:100C300092010E948B3A860E971EA81EB91E37E0BD
:100C4000440C551C661C771C3A95D1F7E7FD3FC054
:100C5000BD2DB07FBE838FEF800FF1018083B03355
:100C600009F04CC080913B0990913C09800F911F85
:100C70000E946A05882309F499CF20913B0930919D
:100C80003C09C7010296820F931F0E946A058823C0
:100C900009F48CCF0E5F1F4FE0913B09F0913C09A6
:100CA000D1018C91DF01A80FB11D11968C91119784
:100CB00090E0982F882712962C91820F911D208109
:100CC00021FD0296F2E0E0E030E020E01DC0780176
:100CD0000530110509F096CF8FEF9FEF90935D09D6
:100CE00080935C098091390990913A09DC01ED917A
:100CF000FC910488F589E02D199558CFF0E0E0E0EB
:100D000030E020E090E080E070E060E0CF2EDE2E6A
:100D1000E32EF22E28013B014C185D086E087F0877
:100D20004A825B826C827D822C01712C612C4F8205
:100D3000588669867A864A805B806C807D804C0C00
:100D40005D1C6E1C7F1CC814D904EA04FB0408F067
:100D500046C0CE0101960E946A05882309F426CF79
:100D600080915A0990915B09009711F12E812033EF
:100D7000F9F4D1012C914EEF5FEF6FEF7FEF421B43
:100D8000510961097109440E551E661E771E2F8197
:100D9000388549855A85241535054605570540F49B
:100DA000DC01ED91FC910190F081E02D69811995B4
:100DB00080913D0990913E090817190750F48981E7
:100DC000E0913B09F0913C09E00FF11F80830F5F38
:100DD0001F4FBFEFCB1ADB0AEB0AFB0AACCF8091A7
:100DE0005A0990915B09892B69F480913D09909192
:100DF0003E09B0E0A0E084159505A605B70510F4FE
:100E000010E000E0B80190E080E0D3CEDC01ED918D
:100E1000FC910190F081E02D1994AF92BF92CF9296
:100E2000DF92EF92FF920F931F93CF93DF936C01AA
:100E30007B018B01040F151FEB015E01AE18BF088B
:100E4000C017D10759F06991D601ED91FC9101903D
:100E5000F081E02DC6011995892B79F7C501DF9145
:100E6000CF911F910F91FF90EF90DF90CF90BF90A7
:100E7000AF900895FC01538D448D252F30E0842FD1
:100E800090E0821B930B541710F0CF9608950197B2
:100E90000895FC01918D828D981761F0A28DAE0F9F
:100EA000BF2FB11D5D968C91928D9F5F9F73928F26
:100EB00090E008958FEF9FEF0895FC01918D828D52
:100EC000981731F0828DE80FF11D858D90E008951F
:100ED0008FEF9FEF0895FC01918D228D892F90E077
:100EE000805C9F4F821B91098F73992708958CE531
:100EF00096E00E946B0721E0892B09F420E0822F05
:100F00000895FC01A48DA80FB92FB11DA35ABF4F9E
:100F10002C91848D90E001968F739927848FA689F8
:100F2000B7892C93A089B1898C91837080648C934C
:100F3000938D848D981306C00288F389E02D8081FB
:100F40008F7D80830895EF92FF920F931F93CF932D
:100F5000DF93EC0181E0888F9B8D8C8D98131AC0F4
:100F6000E889F989808185FF15C09FB7F894EE89DB
:100F7000FF896083E889F989808183708064808338
:100F80009FBF81E090E0DF91CF911F910F91FF9083
:100F9000EF900895F62E0B8D10E00F5F1F4F0F732B
:100FA0001127E02E8C8D8E110CC00FB607FCFACFE6
:100FB000E889F989808185FFF5CFCE010E948107FC
:100FC000F1CFEB8DEC0FFD2FF11DE35AFF4FF082B7
:100FD0009FB7F8940B8FEA89FB8980818062CFCF1D
:100FE0000F931F93CF93DF938C01D0E0C0E0F80103
:100FF000EC0FFD1F6491662341F08CE596E00E94A2
:10100000A307892B11F02196F2CFCE01DF91CF916A
:101010001F910F910895CF93DF93EC01888D882362
:10102000B9F0AA89BB89E889F9898C9185FD03C04B
:10103000808186FD0DC00FB607FCF7CF8C9185FF30
:10104000F2CF808185FFEDCFCE010E948107E9CFED
:10105000DF91CF91089580E090E0892B29F00E94E4
:10106000770781110E94000080E090E0892B49F011
:1010700080E090E0892B29F00E94000081110E94FD
:10108000000080E090E0892B49F080E090E0892B1F
:1010900029F00E94000081110E94000080E090E091
:1010A000892B49F080E090E0892B29F00E94000014
:1010B00081110C9400000895CF93DF93EB018F5BB7
:1010C0009F4FFC018081882301F16F30F7E27F0799
:1010D000E1F0CB016AE070E00E94F33A072E000CC9
:1010E000880B990B0E94263CC73FDF4F94F020E00D
:1010F00030E040E05FE30E94103B0E94EE3B2AE0BC
:10110000269FE001279FD00D1124CE01DF91CF91C2
:10111000089520E030E040E05FE30E940F3BEDCF18
:101120006F927F928F929F92AF92BF92CF92DF92F7
:10113000EF92FF920F931F93CF93DF93EC01DB01AC
:101140004AA95BA92EA93FA94617570719F58CA9EB
:101150009DA901969DAB8CAB8217930708F486C0BE
:10116000188219821A821B821FA61EA619AA18AA03
:101170001DAA1CAACA01DF91CF911F910F91FF9068
:10118000EF90DF90CF90BF90AF909F908F907F9027
:101190006F9008951DAA1CAA0EA51FA5488159810C
:1011A0006A817B8188A999A96D010B2E000CEE083C
:1011B000FF08FC0133963F010217130708F059C0DE
:1011C0004C0D5D1D6E1D7F1D488359836A837B8393
:1011D0000F5F1F4F1FA70EA7F301EE0FFF1FEC0FAE
:1011E000FD1FB183A0830196B9010E94DF3A99AB3C
:1011F00088AB288139814A815B81AAE0B0E00E94F6
:101200008B3A2EA53FA550E040E00E946C3A790150
:10121000AC81BD81E6EF1E2FBD011603C001179FF3
:10122000900D1124280F391F37FF03C031952195E8
:10123000310928303105D4F0C7016AE070E00E941E
:10124000F33A072E000C880B990B0E94263C27EFDF
:10125000E2162FEFF20634F120E030E040E05FE3E9
:101260000E94103B0E94EE3B7D836C838C819D81AC
:1012700082CF8F01000F111F0C0F1D1FF8018080FE
:101280009180092C000CAA08BB08481959096A0961
:101290007B094C0D5D1D6E1D7F1D488359836A833C
:1012A0007B839ACF20E030E040E05FE30E940F3B79
:1012B000D9CFEF92FF920F931F93CF93DF93EC015F
:1012C0008B017A010E94FB04688B798B8A8B9B8B44
:1012D0008C819D81DC01ED91FC910280F381E02DF8
:1012E000A701B801DF91CF911F910F91FF90EF906F
:1012F00019941F93CF93DF93EC01162F0E94FB04E8
:10130000688B798B8A8B9B8B8C819D81DC01ED9125
:10131000FC910190F081E02D612FDF91CF911F9121
:101320001994DC0180E0615090F09D919827E92F9D
:10133000EF70F0E0E955FD4F2491E92FE295EF7051
:10134000F0E0E954FD4FE491822F8E27ECCF089511
:10135000DC012C911196ED91FC91F8948181822B06
:1013600081839281322F30959323928387E090E09E
:101370000197F1F781818323818383E290E00197D4
:10138000F1F790817894EFECF0E03197F1F7922348
:1013900081E009F480E00895FC0190810180F281F0
:1013A000E02D292F209560FF14C0F89482818223BC
:1013B00082838181892B8183A3E2B0E01197F1F7C9
:1013C0008281982B9283789487ED90E00197F1F7D2
:1013D0000895F8948281822382838181892B81837D
:1013E000AFEFB0E01197F1F78281982B9283789458
:1013F0008FE090E0EBCFDF92EF92FF920F931F937D
:10140000CF93DF93EC01D62EE42E08E010E0FF240A
:10141000F39461E08D2D8F2109F460E0CE010E94EC
:10142000CC09FF0C01501109A1F7E11010C0F8948C
:10143000E981FA8191818881809589238183E9817D
:10144000FA81928188818095892382837894DF91C3
:10145000CF911F910F91FF90EF90DF900895EF9241
:10146000FF920F931F93CF93DF938C017B0140E09A
:1014700065E50E94FB09E70188E0E80EF11C69912F
:1014800040E0C8010E94FB09CE15DF05C1F7DF91DE
:10149000CF911F910F91FF90EF900895FC019081E3
:1014A0000180F281E02DF8948181292F20958223FB
:1014B000818378943DE743E050E0315029F1DA012F
:1014C0001197F1F780818923C1F3F89482818223F7
:1014D00082838181892B81837894ABE7B7E0119770
:1014E000F1F7F894818182238183A3E1B1E0119720
:1014F000F1F78081982381E009F080E07894E3E6B9
:10150000F6E03197F1F7089580E008956F927F92A9
:101510008F929F92AF92BF92CF92DF92EF92FF9203
:101520000F931F93CF93DF938C01EB018091A5095B
:101530009091A6090E944E0A882309F43FC0B80181
:101540008091A5099091A6090E942F0A40E06EEBB8
:101550008091A5099091A6090E94FB097E016E0168
:1015600089E0C80ED11C8E01A090A509B090A609F3
:1015700088E0882E912C712C66246394C5010E940A
:10158000A80981117628660CE1E08E1A9108B1F75E
:10159000F80171928F01CE16DF0631F78091A5090F
:1015A0009091A6090E944E0A813041F4F701819181
:1015B0007F01811105C0E017F107C1F790E008C075
:1015C00068E0CE010E94910991E028852813F6CFAA
:1015D000892FDF91CF911F910F91FF90EF90DF90B6
:1015E000CF90BF90AF909F908F907F906F90089515
:1015F0006093860470938704809388049093890491
:10160000645D7E4F8F4F9F4F60938204709383047D
:10161000809384049093850482E090E09093810409
:10162000809380040E94FB0460937C0470937D048B
:1016300080937E0490937F0408952F923F924F925F
:101640005F926F927F928F929F92AF92BF92CF9252
:10165000DF92EF92FF920F931F93CF93DF93382E79
:10166000962E842E222E84E6E816F1040CF459C03E
:1016700092EBE91A97E0F90AE0925B0500935A05AC
:101680002092590530925705909256058092550543
:10169000AE2DB0E020E833E341EE51E00E948B3AFA
:1016A0002B013C0122EB37E0FF24E4E6F0E0C0E947
:1016B000D1E0C901825B97408E159F05B4F19EE48D
:1016C000E91A98EFF90AC70164E670E00E94F33A5C
:1016D0006C01C70160E971E00E94F33A5C01CDE45E
:1016E000D2E0E1E0F0E0112783E0E822FF24E017F8
:1016F000F1070CF042C0E230F10591F5E114F1047C
:1017000079F5C114D10419F4A114B10449F580E8A4
:10171000480E8BE3581E86E2681E711C3196219696
:10172000E6CF8EE1E80EF11CA7CFC901837099279F
:10173000892B99F4C901BF010E94F33A892B31F436
:10174000C901BE010E94F33A892B39F490E8490E91
:1017500091E5591E91E0691E711C2F5F3F4FA9CF83
:10176000A881B0E020E831E541E050E00E948B3AEA
:10177000460E571E681E791ED1CF292D30E0ACE3EE
:10178000B0E00E94C03A6B017C01C80CD11CE11C86
:10179000F11C232D30E0A0E1BEE00E94C03AC60E4D
:1017A000D71EE81EF91E822D8150990BDC0120E81E
:1017B00031E541E050E00E94963A6C0D7D1D8E1D92
:1017C0009F1D640D751D861D971DDF91CF911F9183
:1017D0000F91FF90EF90DF90CF90BF90AF909F90D0
:1017E0008F907F906F905F904F903F902F900C94D0
:1017F000F80ACF92DF92EF92FF920F931F930E940D
:10180000FB048B019C01C0907C04D0907D04E0908F
:101810007E04F0907F04609186047091870480912B
:101820008804909189040C191D092E093F09083E6E
:10183000134021053105E0F0DC01CB010196A11D2B
:10184000B11D8093860490938704A0938804B0937D
:101850008904B701A60148515C4F6F4F7F4F4093F9
:101860007C0450937D0460937E0470937F04C7CF03
:101870001F910F91FF90EF90DF90CF9008954F92BE
:101880005F926F927F928F929F92AF92BF92CF9210
:10189000DF92EF92FF92CF93DF93CDB7DEB76697DB
:1018A0000FB6F894DEBF0FBECDBF9E8B8D8B0E940E
:1018B000F90B6B017C01AD89BE891A968C911A9740
:1018C000982F9F702EE0290F2F70233008F06CC0E6
:1018D00016964D915D916D917C911997C416D50620
:1018E000E606F70608F460C0923049F412968D912E
:1018F0009D910D90BC91A02DED89FE892CC1933056
:1019000009F08AC0AD89BE8912964D905D906D90A8
:101910007C9015970E94F90B6D837E838F83988747
:1019200090E8892E91E5992EAA24A394B12CC701A1
:10193000B601A50194010E949E3A29833A834B8304
:101940005C836D817E818F819885A50194010E94C1
:101950009E3A60E871E581E090E00E94CF3A460E41
:10196000571E681E791EED89FE8982809380A480AF
:10197000B58029813A814B815C81C414D504E60489
:10198000F704C8F12F5F3F4F4F4F5F4F60E871E59D
:1019900081E090E00E94CF3A860E971EA81EB91EE5
:1019A00086829782A086B186ED89FE8982858F70B6
:1019B000813061F482819381A481B5818C0D9D1D5C
:1019C000AE1DBF1D86839783A087B18766960FB62D
:1019D000F894DEBF0FBECDBFDF91CF91FF90EF90A7
:1019E000DF90CF90BF90AF909F908F907F906F903F
:1019F0005F904F90089560E871E581E090E00E946B
:101A0000CF3A860E971EA81EB91EED89FE898682E2
:101A10009782A086B186C8CF943009F0B6C0AD8950
:101A2000BE8912962D913D914D915C911597298714
:101A30003A874B875C870E94F90B4B015C010E943F
:101A4000F90B6D877E878F87988B0E94F90B698BC6
:101A50007A8B8B8B9C8B80E8482E81E5582E6624F0
:101A60006394712CC701B601A30192010E949E3AB2
:101A70006D837E838F839887CA01B9016C5F7F4F26
:101A80008F4F9F4F27E030E040E050E00E949E3AA9
:101A90009B01AC0160E871E581E090E00E94CF3AE3
:101AA00069837A838B839C8329853A854B855C8502
:101AB000820E931EA41EB51E6D857E858F85988926
:101AC000A30192010E949E3A861A970AA80AB90AAF
:101AD00069897A898B899C89A30192010E949E3A27
:101AE000CA01B9016C5F7F4F8F4F9F4F27E030E0F5
:101AF00040E050E00E949E3A9B01AC0160E871E535
:101B000081E090E00E94CF3A861A970AA80AB90AA3
:101B1000ED89FE8982819381A481B581C814D9049D
:101B2000EA04FB04E8F08058954CA64FBF4F8C0D9B
:101B30009D1DAE1DBF1D2D813E814F815885821B8D
:101B4000930BA40BB50B29813A814B815C81821BDD
:101B5000930BA40BB50B86839783A087B18724CF03
:101B60008C0D9D1DAE1DBF1D2D813E814F81588561
:101B7000821B930BA40BB50B29813A814B815C81AD
:101B8000821B930BA40BB50BB7CE8F7EAD89BE899C
:101B90001A968C9309CF4F925F926F927F928F9299
:101BA0009F92AF92BF92CF92DF92EF92FF920F93EC
:101BB0001F93CF93DF934B015C0180917804909148
:101BC0007904A0917A04B0917B0488159905AA053F
:101BD000BB0509F4C6C08CE3C82ED12CE12CF12C36
:101BE000C501A70196010E949E3A60935505CA015E
:101BF000B901A70196010E949E3A60935605C5015E
:101C0000B40120E13EE040E050E00E949E3ACA016B
:101C1000B90128E130E040E050E00E949E3A609334
:101C20005705C501B40120E831E541E050E00E94CC
:101C30009E3A69017A01CA01B9016C5F7F4F8F4FEB
:101C40009F4F27E030E040E050E00E949E3A6F5FF7
:101C500060935805412C512C320140E004E610E01D
:101C6000C0E9D1E0242F30E02E54384FF901E37061
:101C7000FF273097F9F4C901B8010E94F33A892B84
:101C800031F4C901BE010E94F33A892B99F48EE622
:101C900091E0A0E0B0E0480E591E6A1E7B1ED30101
:101CA000C201AA27BB27C816D906EA06FB0638F0E8
:101CB0004F5FD8CF8DE691E0A0E0B0E0ECCF40934D
:101CC0005B05C90164E670E00E94F33AEC01C901CA
:101CD00060E971E00E94F33A309721F42097D9F43B
:101CE0000097C9F04DE651E060E070E0441A550AF3
:101CF000660A770AC418D508E608F708ADE4B2E02A
:101D000020E0213069F43097E9F5209711F400972D
:101D1000C9F54DE106C04EE651E060E070E0E6CF67
:101D20004C9150E070E060E031E0320FC416D5060F
:101D3000E606F70640F0C41AD50AE60AF70A119635
:101D4000232F3C30F1F62F5F20935A05C394C092A5
:101D500059058092780490927904A0927A04B09206
:101D60007B04DF91CF911F910F91FF90EF90DF9057
:101D7000CF90BF90AF909F908F907F906F905F902B
:101D80004F9008954CE1CDCF0895FC0120812EBDE8
:101D90009B012150310941F051810DB407FEFDCF67
:101DA0004EB55EBD4193F5CF61507109860F971F07
:101DB0000DB407FEFDCF2EB5FC0120830895BF9220
:101DC000CF92DF92EF92FF920F931F93CF93DF9307
:101DD0001F92CDB7DEB7C82E89838091800990917C
:101DE0008109892B91F061E070E0CE0101960E949B
:101DF000C50E89810F90DF91CF911F910F91FF90B8
:101E0000EF90DF90CF90BF900895809188099091D6
:101E1000890911E0892B09F010E8BB24B3948C2DBB
:101E2000812309F0B12C20918409309185094091DA
:101E300086095091870960E271EA87E090E00E948C
:101E40009E3A022FD12CE22EF12C002319F0C7016B
:101E50000E94D20380918A09877F09F054C0809143
:101E60008D098F3FA1F09C2D912381E009F480E042
:101E70008B1569F0E0918F09F09190098091970995
:101E80009923D9F19081892B8083BB24B394E0916D
:101E90009109F0919209808190919909892B808311
:101EA000002319F0C7010E94D20380918E098F3F51
:101EB00051F0E0919309F0919409808190919809F3
:101EC000892309F0D12AE0919109F091920990813A
:101ED0008091990980958923808380918E098F3F15
:101EE00009F0D9828091880990918909892B09F09C
:101EF00047C0110F1111A9CF7CCF90818095892304
:101F00008083B12CC4CFE0919109F0919209808136
:101F100090919909892B8083002319F0C7010E94B1
:101F2000D20380918D098F3F61F0E0918F09F0918C
:101F30009009809197099C2D9123F1F09081892B34
:101F40008083E0919109F0919209908180919909A3
:101F500080958923808380918E098F3F09F4BDCFBE
:101F6000E0919309F09194098081909198098923D7
:101F700009F4B3CFD12AB1CF908180958923E0CFE6
:101F80001695B8CFE0910005F09101058081909100
:101F9000FF04892B80830895E0910005F0910105ED
:101FA00090818091FF0480958923808308958EBD60
:101FB00000000DB407FEFDCF8EB50895AF92BF921D
:101FC000CF92DF92EF92FF920F931F93CF93DF9305
:101FD00000D000D01F921F92CDB7DEB78C017B01DD
:101FE0006A01809102058333E1F45801A40EB51E05
:101FF000A016B10609F46FC00E94CC0F80EF0E94BA
:10200000D70F812F0E94D70F802F0E94D70F0F5F0D
:102010001F4FF70181917F010E94D70F0E94C20FCD
:10202000E7CF5B01A40EB51E8433C1F40E94CC0F30
:1020300019830A838D2D80688B83CC8264E070E0E5
:10204000CE0101960E94C50EAE14BF0409F441C032
:10205000F70181917F010E94D70FF6CF0E94CC0F2C
:102060000F3F110509F028F419820A8384E08B835D
:102070000CC017FD17C019820A8333E01695079527
:102080003A95E1F7007E0C600B8386E0C816D10418
:10209000A0F5F701DE011496EA15FB0599F0819190
:1020A0008D93FACFC80126E0969587952A95E1F79A
:1020B000807E19830A830115104C10F48461D7CFF8
:1020C0008C61D5CFB6016D5F7F4FCE0101960E9426
:1020D000C50E0E94C20FC60128960FB6F894DEBF47
:1020E0000FBECDBFDF91CF911F910F91FF90EF9069
:1020F000DF90CF90BF90AF90089563E070E0CE0185
:1021000001960E94C50EF70181917F010E94D70FB1
:10211000AE14BF04C1F7DDCF90E020910205233358
:1021200039F40C96982F990F990F990F80E0089524
:102130004896F8CFDA01E0910305F0E0FE2FEE2794
:10214000E60FF71F90E0982F8827A901BD018E0F99
:102150009F1F0C94DE0FCF93DF931F921F92CDB77A
:10216000DEB779836A8322E030E0AE014F5F5F4FD4
:1021700060E170E00E949A100F900F90DF91CF9174
:102180000895CF93DF931F921F92CDB7DEB7798367
:102190006A8322E030E0AE014F5F5F4F64E070E0A1
:1021A0000E949A100F900F90DF91CF910895CF93D6
:1021B000DF931F92CDB7DEB76983DC01ED91FC910F
:1021C0000280F381E02D41E050E0BE016F5F7F4F60
:1021D00019950F90DF91CF910895FC019485FB0133
:1021E0008485981303C081E0983008F080E008955A
:1021F000CF93DF931F92CDB7DEB76983DC01ED91FA
:10220000FC910280F381E02D41E050E0BE016F5F60
:102210007F4F19950F90DF91CF910895CF93DF9362
:102220001F92CDB7DEB7698341E050E0BE016F5F1A
:102230007F4F0E94DE0F0F90DF91CF910895682F9E
:1022400090E080E00C940E112091030530E0322FD5
:102250002227260F371F90E0982F8827642F820FA0
:10226000931F0C940E11089580918B098F3F19F0E4
:1022700061E00C94440408958CBD9DBD0895809147
:10228000800990918109892B41F0E0918209F091B8
:102290008309808191810E943C1180918B098F3F3D
:1022A00019F060E00C9444040895CF93DF93D82F85
:1022B000C62F0E943F118D2F80680E94DF0E8C2F49
:1022C0000E94DF0EDF91CF910C943411EF92FF92B8
:1022D0000F931F93CF93DF93EC017B018A010E9440
:1022E0003F1188810E94DF0EE7010E0D1F1DC017F0
:1022F000D10729F08FEF0E94DF0E8993F8CF0E945B
:10230000341181E0DF91CF911F910F91FF90EF90F9
:102310000895CF93DF931F921F92CDB7DEB71A8235
:10232000898341E050E0BE016E5F7F4FCE01019690
:102330000E9466118A810F900F90DF91CF910895CE
:1023400080E00E948911837D682F626080E00C9498
:102350005511CF93C82F80E00E948911682FCC239C
:1023600029F0606880E0CF910C9455116F77FACF17
:102370000F931F93CF93DF9300D0CDB7DEB70E94AA
:10238000A01181E00E94A9116AE070E080E090E075
:102390000E94C80480E00E948911682F606280E07A
:1023A0000E94551161E470E080E090E00E94C80452
:1023B00019821A8281E08B8342E050E0BE016F5F98
:1023C0007F4FCE0103960E94661109811A81102762
:1023D0000127102780E00E94A911C80196958795D2
:1023E0000F900F900F90DF91CF911F910F91089553
:1023F000FF920F931F93CF93DF93EB01FC01178A9A
:10240000168A2A81211109C02B81211106C02C8135
:10241000211103C02D81222301F141155105E9F05D
:102420008A01FC01F08C80E591E00E943C11AE0134
:102430004E5F5F4F24E030E06CE070E08F2D0E9433
:102440009A10B8018F2D0E94AB1081E090E0DF91CF
:10245000CF911F910F91FF90089580E0F7CFFC017D
:10246000848595850895FC0184899589089521ECDA
:1024700032E0FC0131832083FB014089518962896C
:102480007389FC0142835383648375830895DC015F
:10249000ED91FC91048CF58DE02D199490E080E095
:1024A0000895CF93CFB7F89480917704811127C016
:1024B000E8E7F5E08491EEEBF5E09491E82FF0E0A9
:1024C000EE0FFF1FEB5AFC4FA591B491EC91E9235D
:1024D00021F461E085E30E94440461E085E30E9409
:1024E00072048CB580618CBD8CB580648CBD61E05C
:1024F00084E30E94720461E083E30E94720480918D
:1025000077048F5F80937704CFBFCF910895CF93E7
:10251000DF93E82FF0E0E75AFD4F208130E0F9012A
:10252000E159FC4F8491F901E757FA4FD491F90131
:10253000ED5BFA4FC491CC23C9F081110E94DD03F9
:10254000EC2FF0E0EE0FFF1FE75DFA4FA591B4917D
:10255000EC91ED2331E020E009F430E0832F922F5D
:1025600021E082278170DF91CF91089590E080E093
:10257000F7CF8F929F92AF92BF92CF92DF92EF925E
:10258000FF920F931F93CF93DF9300D000D000D022
:10259000CDB7DEB729E0289F8001299F100D1124B7
:1025A00004571B4FF80180858F3FB1F44FE057E28D
:1025B000CA0129960FB6F894DEBF0FBECDBFDF91DA
:1025C000CF911F910F91FF90EF90DF90CF90BF9030
:1025D000AF909F908F900895BE016F5F7F4FC801AD
:1025E0000E94860A882311F32A8160E070E0CB0103
:1025F00027FF04C060E070E088EF9FEFF8014081A2
:10260000C9804B3309F05FC03D8137FF5CC0C0FC1F
:10261000CDCFD12CF12CE12CE3E0CC0CDD1CEE1C59
:10262000FF1CEA95D1F746015701F0EE8F22F7E043
:102630009F22AA24BB24C22ED12CF12CE12CFBE03A
:10264000CC0CDD1CEE1CFF1CFA95D1F7C828D9284C
:10265000EA28FB286C297D298E299F29613854EEB0
:1026600075075FEF850795070CF4A0CF0E94263C05
:1026700020E030E040E05CE30E94B73C6B017C016D
:1026800020E030E04EEF52EC0E94B23C18160CF005
:102690008DCF20E030E0A901C701B6010E94B23C15
:1026A00020E030E040E05FE387FD50C0C701B601A5
:1026B0000E94103B0E94EE3B2AE0269FA001279F2C
:1026C000500D112475CF022F10E0102F0027110F8D
:1026D000110F110F28E0C29E600111240C291D2941
:1026E000012E000C220B330B602B712B822B932BB2
:1026F000403109F0B3CF4885442309F4AFCF8B01B3
:102700009C0183E0000F111F221F331F8A95D1F710
:102710000078277033270052110921093109642FED
:1027200070E08F81AB01481B5109CA019695982F23
:102730008827979587950E94F33A072E000C880BFF
:10274000990B600F711F821F931F88CFC701B601BD
:102750000E940F3BAFCFCF92DF92EF92FF9280911A
:10276000A5099091A6090E944E0A40E06CEC809168
:10277000A5099091A6090E94FB0940919C0964E477
:102780008091A5099091A6090E94FB090E94FB0473
:102790006B017C018091A0098823D9F08091A10967
:1027A0008823E1F080919C09811118C08091A509CE
:1027B0009091A6090E94A809813059F00E94FB045B
:1027C0006C197D098E099F096E3E72408105910545
:1027D00068F3FF90EF90DF90CF900895E0919F090C
:1027E000E9508EEE92E0E33038F4F0E0EE0FFF1F98
:1027F000E35EFD4F808191816C01F12CE12C809191
:102800009D09882329F060E080919E090E9444047C
:10281000C701B6010E94C80480919D098823C9F2AE
:1028200061E080919E09FF90EF90DF90CF900C9433
:102830004404FC01AC014C5F5F4F30E020E084E0D9
:10284000220F331F8A95E1F791919A330CF097503C
:102850009053292B4E175F0791F7C901885E93406B
:102860000895FC01768765870895DC01ED91FC9160
:1028700002A0F3A1E02D199591E089270895862FF4
:10288000089581E08627089521E0FC018485883041
:1028900008F020E0822F08950895BF92CF92DF9232
:1028A000EF92FF920F931F93CF93DF93EC01B62E1D
:1028B000C72E8D85811105C0CE010E944E0A81115F
:1028C0000EC01B861D861C8680E0DF91CF911F9174
:1028D0000F91FF90EF90DF90CF90BF90089540E070
:1028E00060EFCE010E94FB0901E0E12CD12C11E048
:1028F000CE010E94A809F82ECE010E94A80991E0FD
:10290000F91218C0813099F51134D8F2DB86D11054
:1029100002C081E08D878B81882399F22396EB2D6D
:10292000FC2DCF01089629912193E817F907D9F7D3
:1029300081E0CBCFEE2DF0E0F8120FC08B85181799
:10294000A0F4DE01AE0FBF1F13968C91802379F4A3
:10295000F12C193008F41C87D12EEC0FFD1F838158
:10296000902F9095892383830AC08113F1CFFE01B4
:10297000EE0DF11D8381802B8383FF24F3946F2D53
:10298000CE010E94CC091F5F000F11F4E39401E017
:1029900087E08E1508F0ACCFB7CFFF920F931F934F
:1029A000CF93DF938C01F62EE091A509F091A60953
:1029B0001386158614861286118610861782168253
:1029C000158214821382C0E0B8018091A50990910C
:1029D000A6090E944D14D82F882329F0FC1629F04F
:1029E000CF5FFC1688F7D0E008C067E0C8010E94FE
:1029F0009109F80197818913F3CF8D2FDF91CF9142
:102A00001F910F91FF900895AF92BF92CF92DF92E6
:102A1000FF920F931F93CF93DF936C01EB018A0119
:102A2000F22E0E945B03882309F442C0A0903D0966
:102A3000B0903E09B501C6010E940F3A9801295F86
:102A40003F4F820F931FA816B90690F160913B0982
:102A500070913C0945E050E0C6010E943903AC0189
:102A60009E01200F311FFE01EC01CE1BDF0BDE01AA
:102A7000AE0FBF1F60913B0970913C09E217F3074D
:102A800029F08191A60FB71F8C93F1CF0550110942
:102A900080E3F11081E3400F511FDF91CF911F912F
:102AA0000F91FF90DF90CF90BF90AF900C940705EF
:102AB00080E0DF91CF911F910F91FF90DF90CF9039
:102AC000BF90AF900895AF92BF92CF92DF92EF92F6
:102AD000FF920F931F93CF93DF9300D01F92CDB738
:102AE000DEB78C016B017A01809102058333E9F432
:102AF0005B016801C40ED51EC016D106A9F10E9463
:102B0000CC0F8FE00E94D70F812F0E94D70F802F0C
:102B10000E94D70F0F5F1F4F80E00E94D70FF50173
:102B200081935F010E94C20FE7CF843369F50E9451
:102B3000CC0F19830A838F2D8F778B83EC8264E00F
:102B400070E0CE0101960E94C50EA70170E060E022
:102B5000C6010E94C43FE114F10421F0B701C6018F
:102B60000E94C50E0E94C20FC7010F900F900F90D8
:102B70000F90DF91CF911F910F91FF90EF90DF9019
:102B8000CF90BF90AF9008950E94CC0F0F3F1105DA
:102B900009F030F419820A831B8263E070E0D1CF20
:102BA00017FD0BC019820A8333E0169507953A95F5
:102BB000E1F7007E08600B83F0CFC80126E0969510
:102BC00087952A95E1F7807E19830A830115104CB9
:102BD00018F480618B83E1CF8861FCCFCF93DF93C2
:102BE0001F92CDB7DEB72091030530E0322F2227A8
:102BF000260F371F90E0982F882741E050E0BE0154
:102C00006F5F7F4F820F931F0E94631589810F9022
:102C1000DF91CF910895CF93C82F462F61E070E0E8
:102C20000E94241161E070E08C2F0E94EE1581114A
:102C3000F9CFCF910895CF93C82F80E591E00E94FE
:102C40003C1168E070E08C2FCF910C940B16CF9361
:102C5000C82F80E591E00E943C1160E170E08C2F6C
:102C6000CF910C940B16CF93DF93EC01888D8830B5
:102C700020F40E94271688E0888FDF91CF91089575
:102C8000CF93C82F80E591E00E943C1163E070E093
:102C90008C2FCF910C94EE15CF93DF93EC018C85A4
:102CA0008830D0F40E944016843189F0882379F06E
:102CB000883169F021E08C3159F4E881F981008490
:102CC000F185E02DCE01199521E0892B09F420E052
:102CD000822FDF91CF91089580E0FBCFCF92DF92DA
:102CE000EF92FF92CF93DF93EC018C85883068F4EC
:102CF0000E941B160E94FB046B017C018C850E94C4
:102D00004016811109C088E08C87DF91CF91FF9038
:102D1000EF90DF90CF90089561E070E080E090E068
:102D20000E94C8040E94FB04AB01BC014C195D0960
:102D30006E097F098D859E85B0E0A0E04817590790
:102D40006A077B07D8F28C850E942716DCCFCF93C9
:102D5000FC01C08D80E591E00E943C1160E270E0D2
:102D60008C2F0E940B1662E070E08C2F0E94EE15F3
:102D700084FD16C062E070E08C2F0E94EE1583FF88
:102D80000AC048E162E070E08C2F0E94241180E0CC
:102D900090E0CF91089580E591E00E943C11E3CF4F
:102DA00040E162E070E08C2F0E94241181E0F0CFBE
:102DB000CF93DF931F92CDB7DEB741E050E0BE0165
:102DC0006F5F7F4F90E080E00E94631589810F90D4
:102DD000DF91CF910895CF93DF93C4E1D0E00E94BB
:102DE000D816882361F061E070E080E090E00E94F6
:102DF000C8042197A1F780E0DF91CF91089581E089
:102E0000FBCF9F92AF92BF92CF92DF92EF92FF9251
:102E10000F931F93CF93DF931F92CDB7DEB76C0153
:102E20005B017A0189018091040581116BC060E327
:102E300072E080E090E00E94C8040E945112EDE42C
:102E4000F5E0E491F0E0EE0FFF1FEB54FC4F8591AD
:102E500094919093010580930005E3E9F5E0E491F6
:102E6000E093FF0461E08AE00E9472040E94C20FB6
:102E700080E591E00E943C1184E38093020580E8A4
:102E80000E941F110E94EB16882309F470C088E08D
:102E90000E941F110E94D816883009F068C080E196
:102EA0000E941F110E94D816803109F060C080E096
:102EB0000E941F110E94D816982E811158C041E01F
:102EC00050E0BE016F5F7F4F8FE190E00E9463157D
:102ED0008981833009F04BC080E48093030542E090
:102EE0006EE170E0892D0E94241142E06FE170E0F4
:102EF000892D0E942411939488E09812F0CF81E0EC
:102F00008093040580E591E00E943C1146E050E08A
:102F100064E072E089E090E00E94DE0FB6016E5F2F
:102F20007F4F44E050E08FE090E00E94DE0FB70159
:102F30006E5F7F4F44E050E081E090E00E94DE0F42
:102F4000B8016E5F7F4F44E050E085E090E00E9462
:102F5000DE0FF50182819381A481B58180932B09D5
:102F600090932C09A0932D09B0932E095FC087E39D
:102F70008093020580E80E941F110E94EB168823AF
:102F800031F188E00E941F110E94D8168830F9F4B0
:102F900080E10E941F110E94D816982EE0E18E1346
:102FA00016C080E00E941F110E94D81681110FC028
:102FB00041E050E0BE016F5F7F4F89E390E00E94E7
:102FC00063158981843019F49092030598CF83E3C7
:102FD0008093020580E80E941F110E94EB1688234F
:102FE00019F180E10E941F110E94D8168031E1F48E
:102FF00082E10E941F110E94D8168231A9F480E05C
:103000000E941F110E94D81681110EC084E0809387
:10301000030565E58BE190E00E940E1165E58AE10C
:1030200090E00E940E116BCF109202050F90DF917D
:10303000CF911F910F91FF90EF90DF90CF90BF90B5
:10304000AF909F9008951F93CF93DF931F92CDB7BA
:10305000DEB7182F80E591E00E943C11812F0E947D
:103060008C1027E0129FF0011124E953FB4F2281BD
:103070003381377041E050E0BE016F5F7F4F820FB8
:10308000931F0E94631589810F90DF91CF911F914B
:103090000895FC01808D883040F4218D328D232BE2
:1030A00021F00E94231890E008958FEF9FEF08957C
:1030B000CF93DF93FC012485283028F08FEF9FEF1A
:1030C000DF91CF910895EC010190F081E02D008413
:1030D000F185E02D1995892B89F38C850E942318A1
:1030E00090E0EECFDA01E0910305F0E0FE2FEE274D
:1030F000E60FF71F90E0982F8827A901BD018E0FDA
:103100009F1F0C9463158F929F92AF92BF92CF92A4
:10311000DF92EF92FF920F931F93CF93DF93CDB780
:10312000DEB760970FB6F894DEBF0FBECDBF7C014F
:1031300090910205911115C018E0812F60960FB68D
:10314000F894DEBF0FBECDBFDF91CF911F910F91DD
:10315000FF90EF90DF90CF90BF90AF909F908F90B7
:10316000089508E0933309F404E06B0180E591E0F1
:103170000E943C119E012F5F3F4F5901490110E011
:1031800063E070E0812F0E94EE15F40181934F01FE
:103190008823C1F01F5F0113F3CF00E0F501819197
:1031A0005F018D3149F0883139F08A51823020F049
:1031B0000F5F1013F3CFC0CF60E170E0802F0E944B
:1031C0000B16102FA12EB12C83EE93E00197F1F78F
:1031D00042E870E060E0812F0E9424114FEF62E02E
:1031E00070E0812F0E942411B601C114D10491F422
:1031F000809102029091030201968115F0EC9F07E5
:1032000008F45CC090930302809302026091020272
:1032100070910302812F0E94C11086E0E0E1F2E08C
:10322000DE01199601900D928A95E1F7F7018381ED
:103230008F778C8784818D8785818E87A7014E5FEC
:103240005F4F24E030E06CE070E0812F0E949A1024
:10325000B601812F0E94AB1026E030E0AE01475F3F
:103260005F4F66E070E0812F0E949A1061E070E08D
:10327000812F0E940B1627E02A9DC0012B9D900DE7
:1032800011249C0129533B4F7901F90111821082CD
:1032900022E030E0AE01415F5F4F68E270E0812FD5
:1032A0000E9472188F859889982789279827F70197
:1032B000938382831682158214823FCF80E090EC44
:1032C000A1CFCF92DF92EF92FF920F931F93CF93F4
:1032D000DF9300D000D0CDB7DEB78C016B017A014F
:1032E000FC01808D883010F40E94271681EC92E05A
:1032F0009A838983F60182819381A481B5818B832E
:103300009C83AD83BE83B701CE0101960E948318D2
:10331000F801808F8830A0F4F586E486128E118E35
:1033200081E026960FB6F894DEBF0FBECDBFDF91C9
:10333000CF911F910F91FF90EF90DF90CF90089564
:1033400080E0EFCF7F928F929F92AF92BF92CF9209
:10335000DF92EF92FF920F931F93CF93DF931F9211
:103360001F92CDB7DEB7782E8B014A01590122E0BA
:1033700030E0AE014F5F5F4F64E270E00E94721870
:10338000E980FA80FE24EF24FE24E00EF11E97016E
:10339000377040910205072D10E0433309F042C019
:1033A000085F1F4F102F0027110F110F110FC901B8
:1033B000800F911F4733C9F1A9014A0D5B1D4130B0
:1033C000584098F160E078E06B01C21AD30AA60178
:1033D000B4010E94DE0FA5014C195D09B4016C0D0A
:1033E0007D1DC8010E94DE0FEA0CFB1CF982EA82F7
:1033F00022E030E0AE014F5F5F4F64E270E0872D66
:103400000E949A100F900F90DF91CF911F910F9112
:10341000FF90EF90DF90CF90BF90AF909F908F90F4
:103420007F900895005F1F4FBDCFA501B401DACF93
:10343000EF92FF921F93CF93DF931F921F92CDB70E
:10344000DEB7182F22E030E0AE014F5F5F4F60E241
:1034500070E00E947218E980FA80FE24EF24FE24B6
:1034600022E030E0AE014F5F5F4F60E270E0812FFD
:103470000E94721889819A81982789279827E816CF
:10348000F90689F487E0189FF0011124E953FB4FF6
:10349000F582E482C7010F900F90DF91CF911F91C9
:1034A000FF90EF9008957C01DBCF1F93CF93DF93C4
:1034B000182F80E591E00E943C11812F0E94181A7C
:1034C000EC0163E070E0812F0E94EE15873121F05E
:1034D0008C3111F0D0E0C0E0CE01DF91CF911F918F
:1034E0000895CF93DF93EC018C85883060F40E94BF
:1034F0004016873111F08C3131F48C850E94551AB9
:103500008115984088F3DF91CF910895FC0184855F
:10351000883010F40C94551A90E080E008959F9242
:10352000AF92BF92CF92DF92EF92FF920F931F93D1
:10353000CF93DF938C015B01942EE52EFC01C688AE
:10354000D788F08C80E591E00E943C118F2D0E947D
:10355000181AC92DDE2D8C179D0708F4EC019E0169
:10356000A501B6018F2D0E94A219F80186899789BD
:103570008C0F9D1F978B868BCE01DF91CF911F9172
:103580000F91FF90EF90DF90CF90BF90AF909F9002
:1035900008958F929F92AF92BF92CF92DF92EF9257
:1035A000FF920F931F93CF936C015B018A01FC0183
:1035B000C485C830F0F57A014130584018F0E12C4C
:1035C00088E0F82E80E591E00E943C118C2F0E944B
:1035D000181A4C0163E070E08C2F0E94EE158731C1
:1035E00011F08C3149F58E149F0460F380E591E071
:1035F0000E943C119701A50170E060E08C2F0E94B1
:10360000A21960E270E08C2F0E940B1662E070E05D
:103610008C2F0E94EE1584FD17C063E070E08C2FA4
:103620000E94EE1581110BC081E090E0F6019383BA
:10363000828310E000E010C0F12CE12CD7CF80E5B0
:1036400091E00E943C11E2CF40E162E070E08C2FFB
:103650000E942411EF2841F3C801CF911F910F91CF
:10366000FF90EF90DF90CF90BF90AF909F908F90A2
:103670000895FF920F931F93CF93DF931F921F9292
:10368000CDB7DEB7F82E22E030E0AE014F5F5F4FDE
:1036900066E270E00E94721809811A8110270127E2
:1036A000102722E030E0AE014F5F5F4F66E270E02E
:1036B0008F2D0E94721889819A81982789279827CF
:1036C0000817190749F4C8010F900F90DF91CF91A7
:1036D0001F910F91FF9008958C01E3CF1F93CF931B
:1036E000DF93182F87E0189FE0011124C953DB4FA7
:1036F00088819981009761F480E591E00E943C11F6
:10370000812F0E94391B2E81821B91099983888306
:10371000DF91CF911F910895FC018485883010F4CA
:103720000C946E1B90E080E008954F925F927F9220
:103730008F929F92AF92BF92CF92DF92EF92FF92C1
:103740000F931F93CF93DF931F921F92CDB7DEB7D6
:10375000782E6B014A01A82EB12C27E0829FC00170
:103760001124FC01E953FB4F7F010081118180E5A9
:1037700091E00E943C110815190554F4872D0E9410
:10378000391BF70126818C01021B1109118300836B
:103790000115110529F563E070E0872D0E94EE15F3
:1037A000843159F0882349F001E010E08C3111F4A4
:1037B00010E000E0119501951109C8010F900F90DC
:1037C000DF91CF911F910F91FF90EF90DF90CF90FD
:1037D000BF90AF909F908F907F905F904F90089593
:1037E000801691060CF4840187E08A9DF0018B9D80
:1037F000F00D1124E953FB4FE280F380C114D10492
:1038000051F12701F7E05F22872D0E948C10840D73
:10381000951D20910205273309F453C09801240D0A
:10382000351D2130384008F44CC020E038E0490113
:1038300084189508A401B6010E9463152601480C5E
:10384000591C6801C818D908872D0E948C10A60140
:10385000B2010E946315E00EF11E87E08A9DF0011F
:103860008B9DF00D1124E953FB4FF382E2822081FE
:103870003181201B310B318320838681800F912F72
:10388000911D8A3F910510F4232BF1F487E08A9D66
:10389000F0018B9DF00D1124E953FB4F1682F98244
:1038A000EA8222E030E0AE014F5F5F4F68E270E0F5
:1038B000872D0E949A1060E470E0872D0E940B16FD
:1038C0007CCFA801B601C5CF868377CFCF93DF9396
:1038D000FC01218D328D2115310529F48FEF9FEFE9
:1038E000DF91CF910895EC01808D4217530708F0C6
:1038F000A9010E94951B1816190684F7298D3A8D87
:10390000281B390B3A8F298FEBCF0F931F93CF933F
:10391000DF931F92CDB7DEB7FC01218D328D232BB3
:1039200041F48FEF9FEF0F90DF91CF911F910F9197
:1039300008958C0141E050E0BE016F5F7F4FFC01B4
:10394000808D0E94951B181619065CF7F801818D71
:10395000928D0197928F818F898190E0E4CFCF93F0
:10396000DF931F92CDB7DEB741E050E0BE016F5F3D
:103970007F4FFC0184850E94951B1816190634F4AC
:10398000898190E00F90DF91CF9108958FEF9FEFA5
:10399000F9CFFC018485883010F40C94951B90E0DD
:1039A00080E008958F929F92AF92BF92CF92DF9264
:1039B000EF92FF920F931F93CF93DF9300D000D02D
:1039C00000D01F92CDB7DEB790910205911115C0BE
:1039D00018E0812F2A960FB6F894DEBF0FBECDBF38
:1039E000DF91CF911F910F91FF90EF90DF90CF90DB
:1039F000BF90AF909F908F90089528E0F22E933360
:103A000011F494E0F92E6B01082F80E591E00E94FB
:103A10003C119E012F5F3F4F5901490110E063E0C7
:103A200070E0812F0E94EE15F40181934F018823ED
:103A3000C1F01F5FF112F3CFF12CF50191915F01FD
:103A40009D3149F0983139F09A51923020F0F39439
:103A50001F11F3CFBDCF60E170E08F2D0E940B16D8
:103A60001F2DE12EF12C83EE93E00197F1F7402F0B
:103A700070E060E0812F0E9424114FEF62E070E05F
:103A8000812F0E942411B601CD2889F48091020271
:103A90009091030201968115F0EC9F0798F19093A5
:103AA0000302809302026091020270910302812F4F
:103AB0000E94C11061E070E0812F0E940B1627E088
:103AC0002E9DC0012F9D900D11249C0129533B4F29
:103AD0007901F9011182108222E030E0AE01475FE6
:103AE0005F4F68E270E0812F0E94721889859A8585
:103AF000982789279827F701938382831682158256
:103B0000148267CF80E090ECCACF0F931F93CF93BE
:103B1000DF93EC018B01888D883010F40E9427160A
:103B2000B80182E00E94D21C888F883050F41D8733
:103B30000C871A8E198E81E0DF91CF911F910F9122
:103B4000089580E0F9CFCF92DF92EF92FF921F931A
:103B5000CF93DF93EC017B016A018C85883048F4B8
:103B60000E944016882319F08C850E941B1688E05D
:103B70008C87F70182819381A481B5810097A1058B
:103B8000B10551F490E080E0DF91CF911F91FF905B
:103B9000EF90DF90CF9008958F3F9F4FAF4FBF4F73
:103BA00089F370E060E081E20E94D21C182F8C87BC
:103BB000883040F780E591E00E943C11A7014E5FFC
:103BC0005F4F24E030E06CE070E0812F0E949A109B
:103BD000B601812F0E94AB1064E070E0812F0E943B
:103BE0000B160E94FB046B017C018C850E94401621
:103BF000873111F18C3101F1882321F20E94FB04FD
:103C0000AB01BC014C195D096E097F098D859E854C
:103C1000B0E0A0E084179507A607B70738F061E089
:103C200070E080E090E00E94C804DFCF8C850E94A5
:103C3000271688E08C87A6CF81E090E0A5CF0F9370
:103C40001F93CF93DF931F921F92CDB7DEB7FC0176
:103C500024852830E0F48C0180E591E00E943C113D
:103C600022E030E0AE014F5F5F4F60E170E0F801AD
:103C700084850E94721889819A81982789279827BC
:103C80000F900F90DF91CF911F910F91089590E0C9
:103C900080E0F6CF0F931F93CF93DF931F921F9275
:103CA000CDB7DEB7FC0124852830E0F48C0180E537
:103CB00091E00E943C1122E030E0AE014F5F5F4F87
:103CC00064E070E0F80184850E94721889819A810D
:103CD0009827892798270F900F90DF91CF911F91F8
:103CE0000F91089590E080E0F6CFFB010190002055
:103CF000E9F73197AF01461B570BDC01ED91FC91C1
:103D00000280F381E02D199463EC72E08CE596E07B
:103D10000C94751ECF93DF930E94F007EC010E9474
:103D2000841E8C0F9D1FDF91CF9108958F929F92DB
:103D3000AF92BF92EF92FF920F931F93CF93DF93B7
:103D4000CDB7DEB7A1970FB6F894DEBF0FBECDBFDB
:103D50007C01FA01CB0119A2223008F42AE08E017D
:103D60000F5D1F4F822E912CB12CA12CBF01A501FC
:103D700094010E949E3AF901CA016A300CF5605D17
:103D8000D8016E938D01232B242B252B79F790E0FE
:103D900080E0109721F0BD01C7010E94751EA19619
:103DA0000FB6F894DEBF0FBECDBFDF91CF911F914C
:103DB0000F91FF90EF90BF90AF909F908F900895DC
:103DC000695CDECFCF92DF92EF92FF92CF93DF93C9
:103DD0006C01990FEE08FF08F7FE1BC06DE28CE541
:103DE00096E00E940607EC0144275527BA014C19BA
:103DF0005D096E097F092AE08CE596E00E94961E17
:103E00008C0F9D1FDF91CF91FF90EF90DF90CF90AF
:103E100008952AE0B701A6018CE596E0DF91CF91E5
:103E2000FF90EF90DF90CF900C94961ECF93DF938E
:103E30000E94E21EEC010E94841E8C0F9D1FDF91E8
:103E4000CF9108958F929F92AF92BF92CF92DF92BF
:103E5000EF92FF920F931F93CF93DF937C018B011F
:103E60006C0182E0C80ED11C4701E5E08E0E911C6A
:103E7000D0E0C0E0F60141916F0150E070E060E0F9
:103E80002AE0C8010E94961E5C016EE2C8010E94F1
:103E900006078A0D9B1DC80FD91FC814D90451F7F6
:103EA000F701458150E070E060E02AE0C8010E941F
:103EB000961E8C0F9D1FDF91CF911F910F91FF9048
:103EC000EF90DF90CF90BF90AF909F908F9008952C
:103ED000CF92DF92EF92FF926B017C010E94CB0D9B
:103EE0008091590590E00E94E21E60E28CE596E028
:103EF0000E940607C701B6010E94CB0D80915A05AA
:103F000023E0829FC0011124ABE4B5E030E020E063
:103F10008F5F9A4FFC01E20FF31FE491ED932F5F47
:103F20003F4F23303105B1F710924E056BE475E039
:103F30008CE596E00E94751E60E28CE596E00E949A
:103F40000607C701B6010E94CB0D80915B0590E08A
:103F50008E54984F0E94E21E60E28CE596E00E942B
:103F60000607C701B6010E94CB0D809157058A3024
:103F700028F460E38CE596E00E940607C701B601CD
:103F80000E94CB0D8091570590E00E94E21E6AE3EB
:103F90008CE596E00E940607C701B6010E94CB0D92
:103FA000809156058A3028F460E38CE596E00E9403
:103FB0000607C701B6010E94CB0D8091560590E01F
:103FC0000E94E21E6AE38CE596E00E940607C701A4
:103FD000B6010E94CB0D809155058A3028F460E32C
:103FE0008CE596E00E940607C701B6010E94CB0D42
:103FF0008091550590E00E94E21EFF90EF90DF90C7
:10400000CF900C94841EBF92CF92DF92EF92FF92DA
:104010000F931F93CF93DF936C01EB018A01B22EB4
:1040200080910002882329F181E292E00E94F0074A
:10403000B6018CE596E00E94751E87E192E00E9431
:10404000F007C8010E94E21E8CE092E00E94F00797
:104050007E01C7018C1B9D0B8017910744F4F7016B
:1040600061917F018CE596E00E940607F2CF0E94E5
:10407000841E2B2DA801BE01C601DF91CF911F9197
:104080000F91FF90EF90DF90CF90BF900C940415AC
:104090000E945B03882309F48EC080911B058093E6
:1040A0005C0561E070E080911C0590911D050E9407
:1040B000B503BC0180911E0590911F050E94B503B8
:1040C000BC0180912005909121050E94B503BC019F
:1040D00080912205909123050E94B503BC01809137
:1040E0002405909125050E94B503BC018091260509
:1040F000909127050E94B503BC01809128059091FD
:1041000029050E94B503BC0180912A0590912B05D9
:104110000E94B503BC0180912C0590912D050E9451
:10412000B503BC0180912E0590912F050E94B50327
:10413000BC012091170530E0220F331F8091160536
:1041400044E0849FC0011124282B392B809118054D
:10415000282B8091150548E0849FC0011124282B4D
:10416000392B80914A0540E1849FC0011124282BFE
:10417000392B8091490540E2849FC0011124282BEE
:10418000392B8091480540E4849FC0011124282BDD
:10419000392B8091760440E8849FC0011124822B42
:1041A000932B0E94C30321E0AC016CE575E086EC23
:1041B00092E00C94032008950F931F93CF93DF9305
:1041C00000D000D01F921F92CDB7DEB78C01D8016E
:1041D00059964D915C915A974115510551F0ED91C9
:1041E000FC91048CF58DE02D70E060E0C80119951C
:1041F000EECFF801808D0E946E1B892BB1F148E053
:1042000050E0BE016F5F7F4FD80158968C910E949D
:10421000951B18161906F4F4D801509684E0FE0197
:10422000319601900D928A95E1F78D8190E0982F5B
:1042300088272E81820F911DF801958B848B8F81A9
:10424000282F30E0322F22278885820F932F911D4F
:10425000928F818F28960FB6F894DEBF0FBECDBF28
:10426000DF91CF911F910F91089590E080E0F2CF00
:104270004F925F926F927F928F929F92AF92BF9276
:10428000CF92DF92EF92FF920F931F93CF93DF9322
:10429000CDB7DEB763970FB6F894DEBF0FBECDBFC4
:1042A0007C016B013A01FB0120E090E080E06AE0D4
:1042B0003191332309F461C040ED430F4A3008F0D7
:1042C0004DC0689FA001699F500D1124CA01C0977D
:1042D000830F911D37FD9A958F3F910549F340F368
:1042E000F701428153816481758180910709909122
:1042F0000809A0910909B0910A09481759076A07E6
:104300007B0709F40DC28701085F1F4F0E94FB0461
:104310006F7077277C5FC8010E94851D813009F08E
:1043200004C281EC92E09A838983F70182819381B0
:10433000A481B5818B839C83AD83BE8345E350E02C
:10434000BE016F5F7F4FC8010E94F811892BA9F54C
:10435000D12CC12CC8010E94331617C03E3209F07F
:10436000BFCF233009F4BCCFD301A20FB11D1296E9
:104370008C932F5F90E080E09BCF233009F0B0CF8B
:10438000F3018583CC24C394D12CC60163960FB668
:10439000F894DEBF0FBECDBFDF91CF911F910F917B
:1043A000FF90EF90DF90CF90BF90AF909F908F9055
:1043B0007F906F905F904F9008950E94FB04F701EB
:1043C0007783668342E050E0B7016A5F7F4FC801A0
:1043D0000E948F1A81E090E09A83898342E050E046
:1043E000BE016F5F7F4FC8010E948F1A80E091E08D
:1043F0009A83898342E050E0BE016F5F7F4FC8011E
:104400000E948F1A1A82198242E050E0BE016F5F4B
:104410007F4FC8010E948F1A42E050E0BE016F5FDB
:104420007F4FC8010E948F1A42E050E0BE016F5FCB
:104430007F4FC8010E948F1A5601F60180818823A0
:1044400001F16501F60181912F01882311F08E326F
:10445000B1F446018A189B081814190474F48D8667
:1044600041E050E0BE01635F7F4FC8010E948F1A98
:10447000A401B501C8010E948F1A5201DECF62016A
:10448000E1CF1D8641E050E0BE01635F7F4FC80170
:104490000E948F1AC12CDD24D394DA82C98242E0B3
:1044A00050E0BE016F5F7F4FC8010E948F1ADA8211
:1044B000C98242E050E0BE016F5F7F4FC8010E9499
:1044C0008F1AC8010E94A716892B09F441CFF3E087
:1044D000AF2EB12C230122E0420E511CD4C0F701B3
:1044E0004281538164817581808D918DA28DB38DC0
:1044F000481759076A077B0709F008C1848D958D15
:10450000C59709F003C181A192A15DEFC52EDD24FD
:10451000DA940C970CF4ADC04CE050E0BE016F5F34
:104520007F4FC8010E94661C8B819C819827892738
:1045300098279A8B898BF7014681578129813A8187
:104540004217530709F0E7C097FFE5C08F709270DC
:104550003BEFC32EDD24DA94892B09F08AC06F80EB
:1045600078847624672476242AEFC22EDD24DA9418
:104570006114710409F47DC0D12CC12C8D819E8100
:10458000982789279827C816D906F8F441E050E003
:10459000BE01635F7F4FC8010E94661C4D854423A6
:1045A00031F050E070E060E0C8010E94661C8D852B
:1045B0008111ECCF44E050E070E060E0C8010E945F
:1045C000661CFFEFCF1ADF0AD9CF912C812C41E076
:1045D00050E0BE016D5E7F4FC8010E94661C4B8992
:1045E000842F807C09F06CC0442331F050E070E0EF
:1045F00060E0C8010E94661C8B898111E8CF42E00F
:1046000050E0BE01615F7F4FC8010E94661C42E01E
:1046100050E0BE01635F7F4FC8010E94661C44E00A
:1046200050E070E060E0C8010E94661C42E050E08B
:10463000BE016F5E7F4FC8010E94661C8F859889FE
:1046400049895A898115914009F043C0CD84DE849F
:10465000DC24CD24DC2481E0C816D104D1F5411539
:10466000544009F04AC044E050E0B201C8010E9441
:10467000661C21E0A21AB10809F46CCEFFEFCF1638
:10468000DF0609F067CE0E94FB043B014C01C80124
:104690000E94DC20181619060CF421CF0E94FB049E
:1046A0006619770988099909693873418105910567
:1046B00048F562E370E080E090E00E94C804E7CF34
:1046C00041E050E070E060E0C8010E94661C1B8A77
:1046D00093CF54274527542770E060E0C8010E941B
:1046E000661CFFEF8F1A9F0A6814790409F06FCFD8
:1046F00096EFC92EDD24DA94BCCFE7EFCE2EDD2471
:10470000DA94B7CFCC24CA94DC2CB3CF6EEFC62E8C
:10471000DD24DA94AECF4CEFC42EDD24DA94A9CF99
:104720008EEFC82EDD24DA9430CED12CC12C2DCEC4
:10473000CF92DF92EF92FF920F931F93CF93DF936D
:10474000CDB7DEB7AF970FB6F894DEBF0FBECDBFC3
:104750007C016A0101EC12E01A8309831C861B8626
:1047600088EE93E0A0E0B0E08D879E87AF87B88B9E
:1047700087E292E09A878987188F0F8B198E1A8E9D
:104780001B8E1C8E88E089A31BA70AA71CA61DA64A
:104790001EA61FA680912B0990912C09A0912D098E
:1047A000B0912E098EA39FA3A8A7B9A78B839C8342
:1047B000AD83BE8318861F82AE01465D5F4FCE017A
:1047C00001960E94382181309105B1F4D701ED9115
:1047D000FC910488F589E02D1DA30CA38CA59DA553
:1047E000AEA5BFA58EA39FA3A8A7B9A7A601BE018A
:1047F0006C5D7F4FC7011995AF960FB6F894DEBF79
:104800000FBECDBFDF91CF911F910F91FF90EF9021
:10481000DF90CF900895CF92DF92EF92FF920F93A7
:104820001F93CF93DF93CDB7DEB7AF970FB6F89452
:10483000DEBF0FBECDBF8C016B017A0181EC92E02F
:104840009A8389831B821C821D821E821C861B8682
:1048500048EE53E060E070E04D875E876F87788BAD
:1048600027E232E03A872987988F8F8B198E1A8E2C
:104870001B8E1C8E28E029A39BA78AA71CA61DA619
:104880001EA61FA6D8011C968C91883060F40E9449
:104890004016882321F0F80184850E941B1688E0C9
:1048A000D8011C968C9380912B0990912C09A09192
:1048B0002D09B0912E098EA39FA3A8A7B9A78B831A
:1048C0009C83AD83BE8318861F82AE01465D5F4F19
:1048D000B601CE0101960E9438210097C1F0D8019F
:1048E000ED91FC910684F785E02D81EC92E09DA38B
:1048F0008CA38CA59DA5AEA5BFA58EA39FA3A8A79D
:10490000B9A7A701BE016C5D7F4FC8011995AF968D
:104910000FB6F894DEBF0FBECDBFDF91CF911F91D0
:104920000F91FF90EF90DF90CF900895EF92FF925C
:104930000F931F93CF93DF9300D01F92CDB7DEB7B5
:104940008C017B01FB0184858830A8F081EC92E02A
:10495000F801918380831282138214821582C80128
:104960000F900F900F900F90DF91CF911F910F91AB
:10497000FF90EF90089580E591E00E943C1124E0C3
:1049800030E0AE014F5F5F4F6CE070E0F70184856F
:104990000E94721881EC92E0F801918380838981F2
:1049A0009A81AB81BC8182839383A483B583D7CF63
:1049B0001F93CF93DF93CDB7DEB72C970FB6F89444
:1049C000DEBF0FBECDBF182F69ED72E0CE0101969C
:1049D0000E94D43F87E31A3008F480E3810F8B876D
:1049E000E12FF0E0EE0FFF1FE955FB4F0190F08142
:1049F000E02D70E060E080AD91AD0E94B50321E054
:104A000044E050E06CE575E0CE0101960E94032081
:104A10002C960FB6F894DEBF0FBECDBFDF91CF91BD
:104A20001F910895BF92CF92DF92EF92FF920F9362
:104A30001F93CF93DF93B82E8B01E82FF0E0EE0F9A
:104A4000FF1FE955FB4FC081D181E8ACF9AC6C8107
:104A50007D81CE010E945C086C01B801CE010E94EC
:104A60009008BC01CE010E945C088C0199AF88AF10
:104A70000F3087E2180761F0C05CDF4F8DE20C1544
:104A80001D052CF08BE2C016D1060CF08DE3888357
:104A90000E151F0539F00E945B03882319F08B2D3A
:104AA0000E94D824C801DF91CF911F910F91FF90F0
:104AB000EF90DF90CF90BF900895CF93DF93CDB765
:104AC000DEB72C970FB6F894DEBF0FBECDBF0E94A5
:104AD0005B038823F1F065EE72E0CE0101960E943F
:104AE000D43FE091AF04F091B004848195816AE0F5
:104AF00070E00E94F33ACB0170E060E00E94C303D3
:104B000021E044E050E06CE575E0CE0101960E94A2
:104B100003202C960FB6F894DEBF0FBECDBFDF91F9
:104B2000CF910895CF92DF92EF92FF920F931F9350
:104B3000CF93DF93EC0180917B00877F80937B0094
:104B400080E480937C0080917A00806480937A0076
:104B500080917A0086FDFCCF609178007091790099
:104B6000072E000C880B990B0E94263C20E030E0B9
:104B700040EA50E40E94B73C20E030E040E85AE3CD
:104B80000E94B73C20E030E049EF53E40E94B73C7C
:104B90002AE939E949E750E40E947C3B6B017C013A
:104BA00020E030E0A9010E94B23C20E030E040E08B
:104BB0005FE387FD37C0C701B6010E94103B0E942A
:104BC000EE3B8B018091AF049091B004FC01E48036
:104BD000F580B8010E949008FC018091760404568B
:104BE0001109093C110518F1811104C081E0888385
:104BF000809376042AE030E0C701B9010E94F33ABD
:104C0000EB01CF01B9010E94F33AC617D707B1F003
:104C1000DF91CF911F910F91FF90EF90DF90CF9098
:104C20000C945D25C701B6010E940F3BC8CF8823B5
:104C300009F381E0888310927604DCCFDF91CF9175
:104C40001F910F91FF90EF90DF90CF9008950F93F9
:104C50001F93CF93DF93CDB7DEB72C970FB6F894A1
:104C6000DEBF0FBECDBF182F062F0E945B03882327
:104C700009F163EF72E0CE0101960E94D43F87E311
:104C80001A3008F480E3810F8B8761EF72E0011125
:104C90000AC0113031F4809101026DE873E08F3F5A
:104CA00011F46FEE72E021E041E050E0CE01019698
:104CB0000E9403202C960FB6F894DEBF0FBECDBF26
:104CC000DF91CF911F910F910895CF93843090F48D
:104CD000C82F0E948712882369F0EC2FF0E0E75A72
:104CE000FD4F61E080810E94440460E08C2FCF91F1
:104CF0000C942726CF910895CF93843090F4C82F39
:104D00000E94871281110DC0EC2FF0E0E75AFD4F91
:104D100060E080810E94440461E08C2FCF910C946C
:104D20002726CF910895809101028F3F29F00E949C
:104D300093038FEF8093010281E00C947C26809195
:104D400001028F3F49F00E9493038FEF809301028D
:104D500060E081E00C94272681E00C946526CF92D8
:104D6000DF92EF92FF92CF93809101028F3F09F083
:104D700071C081E00E94871281116CC080911B0577
:104D8000873509F05FC00E94F90B20E831E541E06A
:104D900050E00E949E3A6B017C012CE2C20E21E0A1
:104DA000D21EE11CF11C81E8C81681E5D80681E01D
:104DB000E806F10408F044C00E94F90B6038734320
:104DC000814E9140E8F190E080E031E1C82F389FBA
:104DD000F001399FF00D1124DF01A75FB84F2C912E
:104DE0002F7051F5E150F94F83E996E2918380836A
:104DF0009C91907DC282D382E482F58225EC32E0E0
:104E00003487238716861586108A178693629061E9
:104E10009C9394FF0EC0CF010E943F0CC0930102EF
:104E200060E081E0CF91FF90EF90DF90CF900C9405
:104E300027269F7E9C93F2CF01968E31910531F605
:104E4000CFEFECCF81E0CF91FF90EF90DF90CF904C
:104E50000C947C26CF91FF90EF90DF90CF90089537
:104E60000F931F93CF93DF93CDB7DEB72C970FB679
:104E7000F894DEBF0FBECDBF182F062F0E945B0334
:104E80008823C1F06FEF72E0CE0101960E94D43FFB
:104E90001A30D8F0195C1B8770E060E0802F0E9408
:104EA0001D0321E042E050E06CE575E0CE01019683
:104EB0000E9403202C960FB6F894DEBF0FBECDBF24
:104EC000DF91CF911F910F910895105DE4CF4F9224
:104ED0005F926F927F928F929F92AF92BF92CF928A
:104EE000DF92EF92FF920F931F93CF93DF938C018A
:104EF0000E94B8110E94B811BC0190E080E00E94AD
:104F0000243C20E030E040E058E30E94B73C20E041
:104F100030E04AE755E40E94B73C4B015C0123EFC7
:104F20003DEB4EE151EB0E94B73C26E133E843E90B
:104F300057E30E94103B0E942A3D22E331E140E802
:104F40005BE30E940F3B2FE735E04BE955EB0E94F6
:104F50007C3B6B017C0120E030E0A9010E94B23C67
:104F600087FF70C020E030E04AE754E4C501B40197
:104F70000E947C3B20E030E048EC52E40E94B73CC9
:104F80006B017C012BE532E44EE050E40E94B73C1B
:104F90002FE135E042E753E40E940F3B2B013C0137
:104FA000A7019601C701B6010E94B73C4B015C0105
:104FB00024E338E749E25BE30E94B73CA301920196
:104FC0000E94103B2B013C01A5019401C701B601D1
:104FD0000E94B73C4B015C0126E03FEE41EA56E3FC
:104FE0000E94B73C9B01AC01C301B2010E940F3B80
:104FF0002B013C01A5019401C701B6010E94B73CF9
:105000004B015C0123E137E142EF52E30E94B73CE0
:105010009B01AC01C301B2010E940F3B2B013C017B
:10502000A5019401C701B6010E94B73C2BE339E901
:1050300047E25FE20E94B73CA30192010E94103B4D
:105040006B017C0180E00E9489118171682F646886
:1050500080E00E94551161E070E080E090E00E94E5
:10506000C80487E00E948911C82F8823D1F10E94CB
:10507000A01188EF94E00E94F0074C2F50E070E000
:1050800060E020E18CE596E00E94961E0E94841E5E
:10509000C7FF04C085EE94E00E948A1EC6FF04C0CC
:1050A00083ED94E00E948A1EC5FF04C08EEB94E05D
:1050B0000E948A1EC4FF04C08BE994E00E948A1EED
:1050C000C3FF04C088E794E00E948A1EC2FF04C0A8
:1050D00085E694E00E948A1E9FE0C92E97E2D92EB1
:1050E00019C020E030E0A901C701B6010E94B23C1E
:1050F00020E030E040E05FE387FDD7C0C701B601A4
:105100000E94103B0E94EE3B2AE0269F6001279FF1
:10511000D00C112490E080E00E94B9127C0181E063
:1051200090E00E94B912EC0182E090E00E94B91276
:105130005C0180914A059FE0C91697E2D90609F003
:10514000B9C0811105C081E0F801808380934A05D0
:1051500080914905FFE0EF16F7E2FF0609F0B3C0C2
:10516000811105C081E0F801808380934905809119
:105170004805CF30F7E2DF0709F0AEC0811105C066
:1051800081E0F801808380934805B60180E00E94A9
:1051900012256C01B70181E00E9412257C01BE013D
:1051A00082E00E941225EC01B50183E00E941225E5
:1051B0005C01FFE0CF16F7E2DF0619F480E00E9401
:1051C0007C26CF3087E2D80709F09FC1E7019FE036
:1051D000A91697E2B90619F482E00E9465269C2F71
:1051E0008D2FCE15DF0514F49E2D8F2D4E01C92F66
:1051F000D82FEFE0CE16E7E2DE0609F076C0BB243A
:10520000B394CF30F7E2DF0709F0C0C082E00E941C
:105210006526BB2029F1FFE0CF16F7E2DF0601F19A
:105220008FE0E81687E2F806D9F080912405909186
:1052300025058C159D05A4F480E00E94871281113C
:105240000AC080911C0590911D058E0D9F1DC816EA
:10525000D9060CF016C180E00E948712811115C199
:1052600080911A05811140C19FE0891697E2990645
:1052700009F43AC180911B05803509F035C1809150
:105280001905811110C1DF91CF911F910F91FF90EE
:10529000EF90DF90CF90BF90AF909F908F907F90D6
:1052A0006F905F904F900C949F26C701B6010E94AB
:1052B0000F3B28CF882309F44BCF81E0F80180838E
:1052C00010924A0545CF882309F451CF81E0F801B7
:1052D0008083109249054BCF882309F456CF81E093
:1052E000F80180831092480550CF8091200590915D
:1052F0002105C816D9065CF480911805882319F198
:105300008091220590912305C816D9069CF080E073
:105310000E946526B0901805BB2011F0B12C71CF0A
:1053200081E080931805F801808386E594E00E946F
:105330008A1E67CF1092180581E0F801808385E40A
:1053400094E00E948A1E80912605909127058C1575
:105350009D057CF080E00E947C26B0901705B1107E
:10536000DDCF81E080931705F801808387E394E027
:10537000DECFB0901705BB2009F441CF109217057E
:1053800081E0F801808387E294E0D1CF8091280505
:1053900090912905C817D90754F4A0901605AA20A2
:1053A00009F456C0C297C817D9070CF449C082E067
:1053B0000E946526A0901605A1104DC081E0809343
:1053C0001605F801808389E194E00E948A1E80918D
:1053D0002A0590912B05C817D90744F4209115058B
:1053E0002223D9F1C297C817D907BCF181E0809375
:1053F0001A0582E00E94652685E0682E85E0782EF9
:10540000C0E0D4E6F30181913F01843631F0319759
:10541000D08364E68C2F0E943027CF5FC03191F794
:105420000E94AF26809115058111F3CE81E0809313
:105430001505F80180838DEE93E00E948A1EE9CE67
:105440001092160581E0F801808389E094E0BDCFD9
:10545000AA24A394BCCFA12CBACF10921A05222360
:1054600049F01092150581E0F80180838FEC93E0FC
:105470000E948A1EAA2009F4CCCE82E00E947C26DB
:10548000C8CE80E00E947C26EBCE80911E059091D4
:105490001F05E80EF91ECE14DF040CF0E1CE80E00B
:1054A0000E946526DDCE80912C0590912D058816F1
:1054B000990694F0DF91CF911F910F91FF90EF909B
:1054C000DF90CF90BF90AF909F908F907F906F9024
:1054D0005F904F900C94AF2680912E0590912F05F0
:1054E000881699060CF4CFCEDF91CF911F910F91C2
:1054F000FF90EF90DF90CF90BF90AF909F908F90F4
:105500007F906F905F904F900895EFE0EE16E7E286
:10551000FE0609F05CCE7E014E01FFE0AF16F7E219
:10552000BF0609F066CE58CE0F931F93CF930E940B
:105530005B03882349F110920002C0E00E945B03E4
:10554000882319F08C2F0E94D824CF5FC430B1F784
:1055500005E015E0C0E0F80161918F018C2F0E94F9
:105560003027CF5FC031B9F7C0E08C2F0E9487127F
:10557000682F8C2F0E942726CF5FC430B1F70E947E
:105580005D2581E080930002CF911F910F910895D6
:10559000CF92DF92EF92FF920F931F93CF93DF93FF
:1055A00000D000D01F921F92CDB7DEB70E945B03E0
:1055B0008111E9C187E492E00E94F0070E945B0339
:1055C000811173C18091390990913A09DC01ED9103
:1055D000FC910688F789E02D1995882309F450C0BD
:1055E00081E090E0909344098093430987E0E6E1ED
:1055F000F2E0DE01119601900D928A95E1F7FE012D
:10560000319685E090E02191A0913B09B0913C0951
:10561000A80FB91F2C9301968C309105A1F700912A
:105620003B0910913C098EEEF80184878091400976
:10563000858780913F098687E0903D09F0903E097B
:10564000B7018AE193E00E940F3A4196E816F90605
:1056500008F04DC08091390990913A09DC01ED9133
:10566000FC910488F589E02D19958BE392E00E9466
:10567000F00780915C0990915D090E94161F83C11B
:1056800060915609709157098091390990913A09B2
:10569000DC01ED91FC914091580950915909611537
:1056A000710571F00088F189E02D1995019709F4D1
:1056B00097CF8EEF9FEF90935D0980935C09D5CFD4
:1056C0000684F785E02D21EC32E03A8329830091AE
:1056D00052091091530920915409309155090B83B7
:1056E0001C832D833E83BE016F5F7F4FDECF4FE073
:1056F00050E0B8018AE193E00E9439038C01E09008
:105700003D09F0903E09B7018BE093E00E940F3A0B
:10571000800F911F0296E816F90608F49BCF60915E
:105720003B0970913C09A8018BE093E00E9439038A
:105730008C01E0903D09F0903E09B70181E293E0D1
:105740000E940F3A800F911F0296E816F90608F49E
:1057500081CF60913B0970913C09A80181E293E0FF
:105760000E9439038C01E0903D09F0903E09B70199
:105770008AE393E00E940F3A800F911F0296E81689
:10578000F90608F467CF60913B0970913C09A801C4
:105790008AE393E00E9439038C01E0903D09F09088
:1057A0003E09B7018EE393E00E940F3A800F911FEC
:1057B0000296E816F90608F44DCF60913B09709106
:1057C0003C09A8018EE393E00E943903AC014550E7
:1057D000510960913B0970913C0980E10E940705E5
:1057E0000E94FB0460934509709346098093470922
:1057F000909348096093490970934A0980934B0933
:1058000090934C098091390990913A09DC01ED910E
:10581000FC910084F185E02D1995892B21F50E94DA
:10582000FB040091490910914A0920914B093091DC
:105830004C096B017C01C01AD10AE20AF30A2091DB
:10584000410930914209A8EEB3E00E94C03AC61661
:10585000D706E806F906B0F28CEF9FEF90935D094A
:1058600080935C09F7CECE0108960E94B50564309E
:1058700071058105910509F0EDCEE0913B09F091AC
:105880003C09838190E08111E9CF0E94FB04609381
:10589000490970934A0980934B0990934C091092DF
:1058A0004D0910925D0910925C0981E392E00E941B
:1058B0008A1E60913D0970913E098AE493E00E943E
:1058C0000F3A21E0AC016AE473E08BE093E00E94C0
:1058D000041500913D0910913E09B80180E693E05E
:1058E0000E940F3A099608171907C8F10E945B0336
:1058F0008823A9F18091430990914409019609F404
:1059000051C09093440980934309E0913B09F09181
:105910003C09809144098583E0913B09F0913C0961
:1059200080914309868360913B0970913C0947E06F
:1059300050E080E693E00E943903E0913B09F0914A
:105940003C09E80FF91F21E02083AC0144505109C4
:1059500060913B0970913C0982E80E9407056091C3
:105960003D0970913E098AE693E00E940F3A20E0DB
:10597000AC016AE673E08BE793E00E9404150E9495
:1059800048200E94942A28960FB6F894DEBF0FBED6
:10599000CDBFDF91CF911F910F91FF90EF90DF90DE
:1059A000CF90089581E090E0ACCF0F931F93CF93F9
:1059B000DF9380911B058735D9F005E015E0C0E045
:1059C000D4E6F80181918F01843631F03197D0838C
:1059D00064E68C2F0E943027CF5FC03191F70E9480
:1059E0009F2682E0DF91CF911F910F910C94652645
:1059F000DF91CF911F910F9108950C943F3E7F92BC
:105A00008F929F92AF92BF92CF92DF92EF92FF92CE
:105A10000F931F93CF93DF931F92CDB7DEB78C0107
:105A20006B015A018EE892E00E94F0070115110502
:105A300029F0B8018CE596E00E94751E83E892E09B
:105A40000E94F007A50170E060E02AE08CE596E096
:105A50000E94961E88E792E00E94F007A501B60119
:105A60008CE596E00E940D070E94841E6FE873E0AB
:105A7000C8010E94CB3F892B71F50E945B038823EC
:105A8000D9F00E94F90B6B017C0120E4C21A28E3D3
:105A9000D20AE108F10870E060E0C7010E94C30388
:105AA000BC01C6010E94C30320E0AC016CE575E0B7
:105AB0008DE993E00E9403200F90DF91CF911F9119
:105AC0000F91FF90EF90DF90CF90BF90AF909F909D
:105AD0008F907F9008956AEA73E0C8010E94CB3FDF
